{
  "_format": "hh-sol-artifact-1",
  "contractName": "AgriVerify",
  "sourceName": "contracts/AgriVerify.sol",
  "abi": [
    {
      "inputs": [],
      "stateMutability": "nonpayable",
      "type": "constructor"
    },
    {
      "anonymous": false,
      "inputs": [
        {
          "indexed": false,
          "internalType": "string",
          "name": "name",
          "type": "string"
        },
        {
          "indexed": false,
          "internalType": "string",
          "name": "ctype",
          "type": "string"
        },
        {
          "indexed": false,
          "internalType": "uint256",
          "name": "price",
          "type": "uint256"
        },
        {
          "indexed": false,
          "internalType": "address",
          "name": "farmerAdd",
          "type": "address"
        }
      ],
      "name": "RegisterCrop",
      "type": "event"
    },
    {
      "anonymous": false,
      "inputs": [
        {
          "indexed": false,
          "internalType": "string",
          "name": "name",
          "type": "string"
        },
        {
          "indexed": false,
          "internalType": "uint16",
          "name": "age",
          "type": "uint16"
        },
        {
          "indexed": false,
          "internalType": "address",
          "name": "farmerAdd",
          "type": "address"
        }
      ],
      "name": "RegisterFarmer",
      "type": "event"
    },
    {
      "anonymous": false,
      "inputs": [
        {
          "indexed": false,
          "internalType": "uint256",
          "name": "id",
          "type": "uint256"
        },
        {
          "indexed": false,
          "internalType": "address",
          "name": "verifierAdd",
          "type": "address"
        },
        {
          "indexed": false,
          "internalType": "bool",
          "name": "isVerified",
          "type": "bool"
        }
      ],
      "name": "VerifiedCrop",
      "type": "event"
    },
    {
      "inputs": [
        {
          "internalType": "string",
          "name": "_name",
          "type": "string"
        },
        {
          "internalType": "string",
          "name": "_ctype",
          "type": "string"
        },
        {
          "internalType": "uint256",
          "name": "_price",
          "type": "uint256"
        }
      ],
      "name": "addCrop",
      "outputs": [],
      "stateMutability": "nonpayable",
      "type": "function"
    },
    {
      "inputs": [
        {
          "internalType": "string",
          "name": "_name",
          "type": "string"
        },
        {
          "internalType": "uint16",
          "name": "_age",
          "type": "uint16"
        }
      ],
      "name": "addFarmer",
      "outputs": [],
      "stateMutability": "nonpayable",
      "type": "function"
    },
    {
      "inputs": [],
      "name": "cropCount",
      "outputs": [
        {
          "internalType": "uint256",
          "name": "",
          "type": "uint256"
        }
      ],
      "stateMutability": "view",
      "type": "function"
    },
    {
      "inputs": [
        {
          "internalType": "uint256",
          "name": "",
          "type": "uint256"
        }
      ],
      "name": "crops",
      "outputs": [
        {
          "internalType": "string",
          "name": "name",
          "type": "string"
        },
        {
          "internalType": "uint256",
          "name": "id",
          "type": "uint256"
        },
        {
          "internalType": "string",
          "name": "ctype",
          "type": "string"
        },
        {
          "internalType": "uint256",
          "name": "price",
          "type": "uint256"
        },
        {
          "internalType": "address",
          "name": "farmerAdd",
          "type": "address"
        },
        {
          "internalType": "address",
          "name": "verifierAdd",
          "type": "address"
        },
        {
          "internalType": "bool",
          "name": "isVerified",
          "type": "bool"
        }
      ],
      "stateMutability": "view",
      "type": "function"
    },
    {
      "inputs": [
        {
          "internalType": "address",
          "name": "",
          "type": "address"
        }
      ],
      "name": "farmers",
      "outputs": [
        {
          "internalType": "string",
          "name": "name",
          "type": "string"
        },
        {
          "internalType": "uint16",
          "name": "age",
          "type": "uint16"
        },
        {
          "internalType": "address",
          "name": "farmerAdd",
          "type": "address"
        }
      ],
      "stateMutability": "view",
      "type": "function"
    },
    {
      "inputs": [],
      "name": "name",
      "outputs": [
        {
          "internalType": "string",
          "name": "",
          "type": "string"
        }
      ],
      "stateMutability": "view",
      "type": "function"
    },
    {
      "inputs": [],
      "name": "owner",
      "outputs": [
        {
          "internalType": "address",
          "name": "",
          "type": "address"
        }
      ],
      "stateMutability": "view",
      "type": "function"
    },
    {
      "inputs": [
        {
          "internalType": "uint256",
          "name": "_id",
          "type": "uint256"
        }
      ],
      "name": "verifyCrop",
      "outputs": [],
      "stateMutability": "nonpayable",
      "type": "function"
    }
  ],
  "bytecode": "0x608060405234801561001057600080fd5b50336000806101000a81548173ffffffffffffffffffffffffffffffffffffffff021916908373ffffffffffffffffffffffffffffffffffffffff1602179055506040518060400160405280600a81526020017f41677269566572696679000000000000000000000000000000000000000000008152506001908161009591906102eb565b506103bd565b600081519050919050565b7f4e487b7100000000000000000000000000000000000000000000000000000000600052604160045260246000fd5b7f4e487b7100000000000000000000000000000000000000000000000000000000600052602260045260246000fd5b6000600282049050600182168061011c57607f821691505b60208210810361012f5761012e6100d5565b5b50919050565b60008190508160005260206000209050919050565b60006020601f8301049050919050565b600082821b905092915050565b6000600883026101977fffffffffffffffffffffffffffffffffffffffffffffffffffffffffffffffff8261015a565b6101a1868361015a565b95508019841693508086168417925050509392505050565b6000819050919050565b6000819050919050565b60006101e86101e36101de846101b9565b6101c3565b6101b9565b9050919050565b6000819050919050565b610202836101cd565b61021661020e826101ef565b848454610167565b825550505050565b600090565b61022b61021e565b6102368184846101f9565b505050565b5b8181101561025a5761024f600082610223565b60018101905061023c565b5050565b601f82111561029f5761027081610135565b6102798461014a565b81016020851015610288578190505b61029c6102948561014a565b83018261023b565b50505b505050565b600082821c905092915050565b60006102c2600019846008026102a4565b1980831691505092915050565b60006102db83836102b1565b9150826002028217905092915050565b6102f48261009b565b67ffffffffffffffff81111561030d5761030c6100a6565b5b6103178254610104565b61032282828561025e565b600060209050601f8311600181146103555760008415610343578287015190505b61034d85826102cf565b8655506103b5565b601f19841661036386610135565b60005b8281101561038b57848901518255600182019150602085019450602081019050610366565b868310156103a857848901516103a4601f8916826102b1565b8355505b6001600288020188555050505b505050505050565b611a6c806103cc6000396000f3fe608060405234801561001057600080fd5b50600436106100885760003560e01c80638da5cb5b1161005b5780638da5cb5b1461012f578063a0a077e11461014d578063dfd55a2c14610169578063fd0a4ac11461018757610088565b806306fdde031461008d5780632d09b9f9146100ab578063401b2168146100c757806370c9f1a5146100f9575b600080fd5b6100956101a3565b6040516100a29190610e44565b60405180910390f35b6100c560048036038101906100c09190610eb0565b610231565b005b6100e160048036038101906100dc9190610f3b565b6105e9565b6040516100f093929190610f94565b60405180910390f35b610113600480360381019061010e9190610eb0565b6106c9565b6040516101269796959493929190610ffc565b60405180910390f35b610137610868565b6040516101449190611079565b60405180910390f35b610167600480360381019061016291906111c9565b61088c565b005b610171610b1c565b60405161017e9190611254565b60405180910390f35b6101a1600480360381019061019c919061129b565b610b22565b005b600180546101b090611326565b80601f01602080910402602001604051908101604052809291908181526020018280546101dc90611326565b80156102295780601f106101fe57610100808354040283529160200191610229565b820191906000526020600020905b81548152906001019060200180831161020c57829003601f168201915b505050505081565b60008111801561024357506004548111155b610282576040517f08c379a0000000000000000000000000000000000000000000000000000000008152600401610279906113a3565b60405180910390fd5b6000600360008381526020019081526020016000206040518060e00160405290816000820180546102b290611326565b80601f01602080910402602001604051908101604052809291908181526020018280546102de90611326565b801561032b5780601f106103005761010080835404028352916020019161032b565b820191906000526020600020905b81548152906001019060200180831161030e57829003601f168201915b505050505081526020016001820154815260200160028201805461034e90611326565b80601f016020809104026020016040519081016040528092919081815260200182805461037a90611326565b80156103c75780601f1061039c576101008083540402835291602001916103c7565b820191906000526020600020905b8154815290600101906020018083116103aa57829003601f168201915b50505050508152602001600382015481526020016004820160009054906101000a900473ffffffffffffffffffffffffffffffffffffffff1673ffffffffffffffffffffffffffffffffffffffff1673ffffffffffffffffffffffffffffffffffffffff1681526020016005820160009054906101000a900473ffffffffffffffffffffffffffffffffffffffff1673ffffffffffffffffffffffffffffffffffffffff1673ffffffffffffffffffffffffffffffffffffffff1681526020016005820160149054906101000a900460ff1615151515815250509050600015158160c001511515146104ee576040517f08c379a00000000000000000000000000000000000000000000000000000000081526004016104e59061140f565b60405180910390fd5b806080015173ffffffffffffffffffffffffffffffffffffffff163373ffffffffffffffffffffffffffffffffffffffff1603610560576040517f08c379a00000000000000000000000000000000000000000000000000000000081526004016105579061147b565b60405180910390fd5b60018160c0019015159081151581525050338160a0019073ffffffffffffffffffffffffffffffffffffffff16908173ffffffffffffffffffffffffffffffffffffffff16815250507f705bdc09a85398427aef24d6826618fac06376632b0e6ce9a696b6ffeb6749b6823360016040516105dd9392919061149b565b60405180910390a15050565b600260205280600052604060002060009150905080600001805461060c90611326565b80601f016020809104026020016040519081016040528092919081815260200182805461063890611326565b80156106855780601f1061065a57610100808354040283529160200191610685565b820191906000526020600020905b81548152906001019060200180831161066857829003601f168201915b5050505050908060010160009054906101000a900461ffff16908060010160029054906101000a900473ffffffffffffffffffffffffffffffffffffffff16905083565b60036020528060005260406000206000915090508060000180546106ec90611326565b80601f016020809104026020016040519081016040528092919081815260200182805461071890611326565b80156107655780601f1061073a57610100808354040283529160200191610765565b820191906000526020600020905b81548152906001019060200180831161074857829003601f168201915b50505050509080600101549080600201805461078090611326565b80601f01602080910402602001604051908101604052809291908181526020018280546107ac90611326565b80156107f95780601f106107ce576101008083540402835291602001916107f9565b820191906000526020600020905b8154815290600101906020018083116107dc57829003601f168201915b5050505050908060030154908060040160009054906101000a900473ffffffffffffffffffffffffffffffffffffffff16908060050160009054906101000a900473ffffffffffffffffffffffffffffffffffffffff16908060050160149054906101000a900460ff16905087565b60008054906101000a900473ffffffffffffffffffffffffffffffffffffffff1681565b600081116108cf576040517f08c379a00000000000000000000000000000000000000000000000000000000081526004016108c69061151e565b60405180910390fd5b6000835111610913576040517f08c379a000000000000000000000000000000000000000000000000000000000815260040161090a9061158a565b60405180910390fd5b6000825111610957576040517f08c379a000000000000000000000000000000000000000000000000000000000815260040161094e906115f6565b60405180910390fd5b6004600081548092919061096a90611645565b91905055506040518060e0016040528084815260200160045481526020018381526020018281526020013373ffffffffffffffffffffffffffffffffffffffff168152602001600073ffffffffffffffffffffffffffffffffffffffff1681526020016000151581525060036000600454815260200190815260200160002060008201518160000190816109fe9190611839565b50602082015181600101556040820151816002019081610a1e9190611839565b506060820151816003015560808201518160040160006101000a81548173ffffffffffffffffffffffffffffffffffffffff021916908373ffffffffffffffffffffffffffffffffffffffff16021790555060a08201518160050160006101000a81548173ffffffffffffffffffffffffffffffffffffffff021916908373ffffffffffffffffffffffffffffffffffffffff16021790555060c08201518160050160146101000a81548160ff0219169083151502179055509050507fa75bd0c51f95d10d425fa9df2d26de39357e2f244993f77eb5bfe3d9870069e583838333604051610b0f949392919061190b565b60405180910390a1505050565b60045481565b600073ffffffffffffffffffffffffffffffffffffffff16600260003373ffffffffffffffffffffffffffffffffffffffff1673ffffffffffffffffffffffffffffffffffffffff16815260200190815260200160002060010160029054906101000a900473ffffffffffffffffffffffffffffffffffffffff1673ffffffffffffffffffffffffffffffffffffffff1614610bf3576040517f08c379a0000000000000000000000000000000000000000000000000000000008152600401610bea906119aa565b60405180910390fd5b6000825111610c37576040517f08c379a0000000000000000000000000000000000000000000000000000000008152600401610c2e9061158a565b60405180910390fd5b60008161ffff1611610c7e576040517f08c379a0000000000000000000000000000000000000000000000000000000008152600401610c7590611a16565b60405180910390fd5b60405180606001604052808381526020018261ffff1681526020013373ffffffffffffffffffffffffffffffffffffffff16815250600260003373ffffffffffffffffffffffffffffffffffffffff1673ffffffffffffffffffffffffffffffffffffffff1681526020019081526020016000206000820151816000019081610d079190611839565b5060208201518160010160006101000a81548161ffff021916908361ffff16021790555060408201518160010160026101000a81548173ffffffffffffffffffffffffffffffffffffffff021916908373ffffffffffffffffffffffffffffffffffffffff1602179055509050507fde20059cdbfaedd08335d1f10038fc999a972d3e347882873c06d85ae12fb74b828233604051610da893929190610f94565b60405180910390a15050565b600081519050919050565b600082825260208201905092915050565b60005b83811015610dee578082015181840152602081019050610dd3565b60008484015250505050565b6000601f19601f8301169050919050565b6000610e1682610db4565b610e208185610dbf565b9350610e30818560208601610dd0565b610e3981610dfa565b840191505092915050565b60006020820190508181036000830152610e5e8184610e0b565b905092915050565b6000604051905090565b600080fd5b600080fd5b6000819050919050565b610e8d81610e7a565b8114610e9857600080fd5b50565b600081359050610eaa81610e84565b92915050565b600060208284031215610ec657610ec5610e70565b5b6000610ed484828501610e9b565b91505092915050565b600073ffffffffffffffffffffffffffffffffffffffff82169050919050565b6000610f0882610edd565b9050919050565b610f1881610efd565b8114610f2357600080fd5b50565b600081359050610f3581610f0f565b92915050565b600060208284031215610f5157610f50610e70565b5b6000610f5f84828501610f26565b91505092915050565b600061ffff82169050919050565b610f7f81610f68565b82525050565b610f8e81610efd565b82525050565b60006060820190508181036000830152610fae8186610e0b565b9050610fbd6020830185610f76565b610fca6040830184610f85565b949350505050565b610fdb81610e7a565b82525050565b60008115159050919050565b610ff681610fe1565b82525050565b600060e0820190508181036000830152611016818a610e0b565b90506110256020830189610fd2565b81810360408301526110378188610e0b565b90506110466060830187610fd2565b6110536080830186610f85565b61106060a0830185610f85565b61106d60c0830184610fed565b98975050505050505050565b600060208201905061108e6000830184610f85565b92915050565b600080fd5b600080fd5b7f4e487b7100000000000000000000000000000000000000000000000000000000600052604160045260246000fd5b6110d682610dfa565b810181811067ffffffffffffffff821117156110f5576110f461109e565b5b80604052505050565b6000611108610e66565b905061111482826110cd565b919050565b600067ffffffffffffffff8211156111345761113361109e565b5b61113d82610dfa565b9050602081019050919050565b82818337600083830152505050565b600061116c61116784611119565b6110fe565b90508281526020810184848401111561118857611187611099565b5b61119384828561114a565b509392505050565b600082601f8301126111b0576111af611094565b5b81356111c0848260208601611159565b91505092915050565b6000806000606084860312156111e2576111e1610e70565b5b600084013567ffffffffffffffff811115611200576111ff610e75565b5b61120c8682870161119b565b935050602084013567ffffffffffffffff81111561122d5761122c610e75565b5b6112398682870161119b565b925050604061124a86828701610e9b565b9150509250925092565b60006020820190506112696000830184610fd2565b92915050565b61127881610f68565b811461128357600080fd5b50565b6000813590506112958161126f565b92915050565b600080604083850312156112b2576112b1610e70565b5b600083013567ffffffffffffffff8111156112d0576112cf610e75565b5b6112dc8582860161119b565b92505060206112ed85828601611286565b9150509250929050565b7f4e487b7100000000000000000000000000000000000000000000000000000000600052602260045260246000fd5b6000600282049050600182168061133e57607f821691505b602082108103611351576113506112f7565b5b50919050565b7f496e76616c69642063726f702069640000000000000000000000000000000000600082015250565b600061138d600f83610dbf565b915061139882611357565b602082019050919050565b600060208201905081810360008301526113bc81611380565b9050919050565b7f43726f7020697320616c72656164792076657269666965640000000000000000600082015250565b60006113f9601883610dbf565b9150611404826113c3565b602082019050919050565b60006020820190508181036000830152611428816113ec565b9050919050565b7f596f752063616e27742076657269667920796f7572206f776e2063726f700000600082015250565b6000611465601e83610dbf565b91506114708261142f565b602082019050919050565b6000602082019050818103600083015261149481611458565b9050919050565b60006060820190506114b06000830186610fd2565b6114bd6020830185610f85565b6114ca6040830184610fed565b949350505050565b7f5072696365206973207265717569726564000000000000000000000000000000600082015250565b6000611508601183610dbf565b9150611513826114d2565b602082019050919050565b60006020820190508181036000830152611537816114fb565b9050919050565b7f4e616d6520697320726571756972656400000000000000000000000000000000600082015250565b6000611574601083610dbf565b915061157f8261153e565b602082019050919050565b600060208201905081810360008301526115a381611567565b9050919050565b7f5479706520697320726571756972656400000000000000000000000000000000600082015250565b60006115e0601083610dbf565b91506115eb826115aa565b602082019050919050565b6000602082019050818103600083015261160f816115d3565b9050919050565b7f4e487b7100000000000000000000000000000000000000000000000000000000600052601160045260246000fd5b600061165082610e7a565b91507fffffffffffffffffffffffffffffffffffffffffffffffffffffffffffffffff820361168257611681611616565b5b600182019050919050565b60008190508160005260206000209050919050565b60006020601f8301049050919050565b600082821b905092915050565b6000600883026116ef7fffffffffffffffffffffffffffffffffffffffffffffffffffffffffffffffff826116b2565b6116f986836116b2565b95508019841693508086168417925050509392505050565b6000819050919050565b600061173661173161172c84610e7a565b611711565b610e7a565b9050919050565b6000819050919050565b6117508361171b565b61176461175c8261173d565b8484546116bf565b825550505050565b600090565b61177961176c565b611784818484611747565b505050565b5b818110156117a85761179d600082611771565b60018101905061178a565b5050565b601f8211156117ed576117be8161168d565b6117c7846116a2565b810160208510156117d6578190505b6117ea6117e2856116a2565b830182611789565b50505b505050565b600082821c905092915050565b6000611810600019846008026117f2565b1980831691505092915050565b600061182983836117ff565b9150826002028217905092915050565b61184282610db4565b67ffffffffffffffff81111561185b5761185a61109e565b5b6118658254611326565b6118708282856117ac565b600060209050601f8311600181146118a35760008415611891578287015190505b61189b858261181d565b865550611903565b601f1984166118b18661168d565b60005b828110156118d9578489015182556001820191506020850194506020810190506118b4565b868310156118f657848901516118f2601f8916826117ff565b8355505b6001600288020188555050505b505050505050565b600060808201905081810360008301526119258187610e0b565b905081810360208301526119398186610e0b565b90506119486040830185610fd2565b6119556060830184610f85565b95945050505050565b7f4661726d657220616c7265616479207265676973746572656400000000000000600082015250565b6000611994601983610dbf565b915061199f8261195e565b602082019050919050565b600060208201905081810360008301526119c381611987565b9050919050565b7f4167652069732072657175697265640000000000000000000000000000000000600082015250565b6000611a00600f83610dbf565b9150611a0b826119ca565b602082019050919050565b60006020820190508181036000830152611a2f816119f3565b905091905056fea2646970667358221220d213e12577506e7888499f9954f3873670453906b45c81d2f3e6aa871c100aca64736f6c634300081b0033",
  "linkReferences": {},
  "deployedLinkReferences": {}
}